{
    "_format": "hh-sol-artifact-1",
    "contractName": "NFTcontract",
    "sourceName": "contracts/NFTcontract.sol",
    "abi": [
        {
            "inputs": [],
            "stateMutability": "payable",
            "type": "constructor"
        },
        {
            "anonymous": false,
            "inputs": [
                {
                    "indexed": true,
                    "internalType": "address",
                    "name": "owner",
                    "type": "address"
                },
                {
                    "indexed": true,
                    "internalType": "address",
                    "name": "approved",
                    "type": "address"
                },
                {
                    "indexed": true,
                    "internalType": "uint256",
                    "name": "tokenId",
                    "type": "uint256"
                }
            ],
            "name": "Approval",
            "type": "event"
        },
        {
            "anonymous": false,
            "inputs": [
                {
                    "indexed": true,
                    "internalType": "address",
                    "name": "owner",
                    "type": "address"
                },
                {
                    "indexed": true,
                    "internalType": "address",
                    "name": "operator",
                    "type": "address"
                },
                {
                    "indexed": false,
                    "internalType": "bool",
                    "name": "approved",
                    "type": "bool"
                }
            ],
            "name": "ApprovalForAll",
            "type": "event"
        },
        {
            "anonymous": false,
            "inputs": [
                {
                    "indexed": true,
                    "internalType": "address",
                    "name": "previousOwner",
                    "type": "address"
                },
                {
                    "indexed": true,
                    "internalType": "address",
                    "name": "newOwner",
                    "type": "address"
                }
            ],
            "name": "OwnershipTransferred",
            "type": "event"
        },
        {
            "anonymous": false,
            "inputs": [
                {
                    "indexed": true,
                    "internalType": "address",
                    "name": "from",
                    "type": "address"
                },
                {
                    "indexed": true,
                    "internalType": "address",
                    "name": "to",
                    "type": "address"
                },
                {
                    "indexed": true,
                    "internalType": "uint256",
                    "name": "tokenId",
                    "type": "uint256"
                }
            ],
            "name": "Transfer",
            "type": "event"
        },
        {
            "inputs": [
                {
                    "internalType": "address",
                    "name": "to",
                    "type": "address"
                },
                {
                    "internalType": "uint256",
                    "name": "tokenId",
                    "type": "uint256"
                }
            ],
            "name": "approve",
            "outputs": [],
            "stateMutability": "nonpayable",
            "type": "function"
        },
        {
            "inputs": [
                {
                    "internalType": "address",
                    "name": "owner",
                    "type": "address"
                }
            ],
            "name": "balanceOf",
            "outputs": [
                {
                    "internalType": "uint256",
                    "name": "",
                    "type": "uint256"
                }
            ],
            "stateMutability": "view",
            "type": "function"
        },
        {
            "inputs": [
                {
                    "internalType": "uint256",
                    "name": "tokenId",
                    "type": "uint256"
                }
            ],
            "name": "getApproved",
            "outputs": [
                {
                    "internalType": "address",
                    "name": "",
                    "type": "address"
                }
            ],
            "stateMutability": "view",
            "type": "function"
        },
        {
            "inputs": [
                {
                    "internalType": "address",
                    "name": "owner",
                    "type": "address"
                },
                {
                    "internalType": "address",
                    "name": "operator",
                    "type": "address"
                }
            ],
            "name": "isApprovedForAll",
            "outputs": [
                {
                    "internalType": "bool",
                    "name": "",
                    "type": "bool"
                }
            ],
            "stateMutability": "view",
            "type": "function"
        },
        {
            "inputs": [],
            "name": "isPublicMintEnable",
            "outputs": [
                {
                    "internalType": "bool",
                    "name": "",
                    "type": "bool"
                }
            ],
            "stateMutability": "view",
            "type": "function"
        },
        {
            "inputs": [],
            "name": "maxPerWallet",
            "outputs": [
                {
                    "internalType": "uint256",
                    "name": "",
                    "type": "uint256"
                }
            ],
            "stateMutability": "view",
            "type": "function"
        },
        {
            "inputs": [],
            "name": "maxSupply",
            "outputs": [
                {
                    "internalType": "uint256",
                    "name": "",
                    "type": "uint256"
                }
            ],
            "stateMutability": "view",
            "type": "function"
        },
        {
            "inputs": [
                {
                    "internalType": "uint256",
                    "name": "quantity_",
                    "type": "uint256"
                }
            ],
            "name": "mint",
            "outputs": [],
            "stateMutability": "payable",
            "type": "function"
        },
        {
            "inputs": [],
            "name": "mintPrice",
            "outputs": [
                {
                    "internalType": "uint256",
                    "name": "",
                    "type": "uint256"
                }
            ],
            "stateMutability": "view",
            "type": "function"
        },
        {
            "inputs": [],
            "name": "name",
            "outputs": [
                {
                    "internalType": "string",
                    "name": "",
                    "type": "string"
                }
            ],
            "stateMutability": "view",
            "type": "function"
        },
        {
            "inputs": [],
            "name": "owner",
            "outputs": [
                {
                    "internalType": "address",
                    "name": "",
                    "type": "address"
                }
            ],
            "stateMutability": "view",
            "type": "function"
        },
        {
            "inputs": [
                {
                    "internalType": "uint256",
                    "name": "tokenId",
                    "type": "uint256"
                }
            ],
            "name": "ownerOf",
            "outputs": [
                {
                    "internalType": "address",
                    "name": "",
                    "type": "address"
                }
            ],
            "stateMutability": "view",
            "type": "function"
        },
        {
            "inputs": [],
            "name": "renounceOwnership",
            "outputs": [],
            "stateMutability": "nonpayable",
            "type": "function"
        },
        {
            "inputs": [
                {
                    "internalType": "address",
                    "name": "from",
                    "type": "address"
                },
                {
                    "internalType": "address",
                    "name": "to",
                    "type": "address"
                },
                {
                    "internalType": "uint256",
                    "name": "tokenId",
                    "type": "uint256"
                }
            ],
            "name": "safeTransferFrom",
            "outputs": [],
            "stateMutability": "nonpayable",
            "type": "function"
        },
        {
            "inputs": [
                {
                    "internalType": "address",
                    "name": "from",
                    "type": "address"
                },
                {
                    "internalType": "address",
                    "name": "to",
                    "type": "address"
                },
                {
                    "internalType": "uint256",
                    "name": "tokenId",
                    "type": "uint256"
                },
                {
                    "internalType": "bytes",
                    "name": "data",
                    "type": "bytes"
                }
            ],
            "name": "safeTransferFrom",
            "outputs": [],
            "stateMutability": "nonpayable",
            "type": "function"
        },
        {
            "inputs": [
                {
                    "internalType": "address",
                    "name": "operator",
                    "type": "address"
                },
                {
                    "internalType": "bool",
                    "name": "approved",
                    "type": "bool"
                }
            ],
            "name": "setApprovalForAll",
            "outputs": [],
            "stateMutability": "nonpayable",
            "type": "function"
        },
        {
            "inputs": [
                {
                    "internalType": "string",
                    "name": "baseTokenUri_",
                    "type": "string"
                }
            ],
            "name": "setBaseTokenUri",
            "outputs": [],
            "stateMutability": "nonpayable",
            "type": "function"
        },
        {
            "inputs": [
                {
                    "internalType": "bool",
                    "name": "isPublicMintEnable_",
                    "type": "bool"
                }
            ],
            "name": "setIsPublicMintEnable",
            "outputs": [],
            "stateMutability": "nonpayable",
            "type": "function"
        },
        {
            "inputs": [
                {
                    "internalType": "bytes4",
                    "name": "interfaceId",
                    "type": "bytes4"
                }
            ],
            "name": "supportsInterface",
            "outputs": [
                {
                    "internalType": "bool",
                    "name": "",
                    "type": "bool"
                }
            ],
            "stateMutability": "view",
            "type": "function"
        },
        {
            "inputs": [],
            "name": "symbol",
            "outputs": [
                {
                    "internalType": "string",
                    "name": "",
                    "type": "string"
                }
            ],
            "stateMutability": "view",
            "type": "function"
        },
        {
            "inputs": [
                {
                    "internalType": "uint256",
                    "name": "tokenId_",
                    "type": "uint256"
                }
            ],
            "name": "tokenURI",
            "outputs": [
                {
                    "internalType": "string",
                    "name": "",
                    "type": "string"
                }
            ],
            "stateMutability": "view",
            "type": "function"
        },
        {
            "inputs": [],
            "name": "totalSupply",
            "outputs": [
                {
                    "internalType": "uint256",
                    "name": "",
                    "type": "uint256"
                }
            ],
            "stateMutability": "view",
            "type": "function"
        },
        {
            "inputs": [
                {
                    "internalType": "address",
                    "name": "from",
                    "type": "address"
                },
                {
                    "internalType": "address",
                    "name": "to",
                    "type": "address"
                },
                {
                    "internalType": "uint256",
                    "name": "tokenId",
                    "type": "uint256"
                }
            ],
            "name": "transferFrom",
            "outputs": [],
            "stateMutability": "nonpayable",
            "type": "function"
        },
        {
            "inputs": [
                {
                    "internalType": "address",
                    "name": "newOwner",
                    "type": "address"
                }
            ],
            "name": "transferOwnership",
            "outputs": [],
            "stateMutability": "nonpayable",
            "type": "function"
        },
        {
            "inputs": [
                {
                    "internalType": "address",
                    "name": "",
                    "type": "address"
                }
            ],
            "name": "walletMints",
            "outputs": [
                {
                    "internalType": "uint256",
                    "name": "",
                    "type": "uint256"
                }
            ],
            "stateMutability": "view",
            "type": "function"
        },
        {
            "inputs": [],
            "name": "withdraw",
            "outputs": [],
            "stateMutability": "nonpayable",
            "type": "function"
        },
        {
            "inputs": [],
            "name": "withdrawWallet",
            "outputs": [
                {
                    "internalType": "address payable",
                    "name": "",
                    "type": "address"
                }
            ],
            "stateMutability": "view",
            "type": "function"
        }
    ],
    "bytecode": "0x60806040526040518060400160405280600b81526020017f4e4654636f6e74726163740000000000000000000000000000000000000000008152506040518060400160405280600281526020017f4e5000000000000000000000000000000000000000000000000000000000000081525081600090816200008191906200042b565b5080600190816200009391906200042b565b505050620000b6620000aa620000e360201b60201c565b620000eb60201b60201c565b66470de4df82000060078190555060006008819055506103e86009819055506002600a8190555062000512565b600033905090565b6000600660009054906101000a900473ffffffffffffffffffffffffffffffffffffffff16905081600660006101000a81548173ffffffffffffffffffffffffffffffffffffffff021916908373ffffffffffffffffffffffffffffffffffffffff1602179055508173ffffffffffffffffffffffffffffffffffffffff168173ffffffffffffffffffffffffffffffffffffffff167f8be0079c531659141344cd1fd0a4f28419497f9722a3daafe3b4186f6b6457e060405160405180910390a35050565b600081519050919050565b7f4e487b7100000000000000000000000000000000000000000000000000000000600052604160045260246000fd5b7f4e487b7100000000000000000000000000000000000000000000000000000000600052602260045260246000fd5b600060028204905060018216806200023357607f821691505b602082108103620002495762000248620001eb565b5b50919050565b60008190508160005260206000209050919050565b60006020601f8301049050919050565b600082821b905092915050565b600060088302620002b37fffffffffffffffffffffffffffffffffffffffffffffffffffffffffffffffff8262000274565b620002bf868362000274565b95508019841693508086168417925050509392505050565b6000819050919050565b6000819050919050565b60006200030c620003066200030084620002d7565b620002e1565b620002d7565b9050919050565b6000819050919050565b6200032883620002eb565b62000340620003378262000313565b84845462000281565b825550505050565b600090565b6200035762000348565b620003648184846200031d565b505050565b5b818110156200038c57620003806000826200034d565b6001810190506200036a565b5050565b601f821115620003db57620003a5816200024f565b620003b08462000264565b81016020851015620003c0578190505b620003d8620003cf8562000264565b83018262000369565b50505b505050565b600082821c905092915050565b60006200040060001984600802620003e0565b1980831691505092915050565b60006200041b8383620003ed565b9150826002028217905092915050565b6200043682620001b1565b67ffffffffffffffff811115620004525762000451620001bc565b5b6200045e82546200021a565b6200046b82828562000390565b600060209050601f831160018114620004a357600084156200048e578287015190505b6200049a85826200040d565b8655506200050a565b601f198416620004b3866200024f565b60005b82811015620004dd57848901518255600182019150602085019450602081019050620004b6565b86831015620004fd5784890151620004f9601f891682620003ed565b8355505b6001600288020188555050505b505050505050565b61360580620005226000396000f3fe60806040526004361061019c5760003560e01c806385d178f4116100ec578063b88d4fde1161008a578063d5abeb0111610064578063d5abeb0114610593578063e985e9c5146105be578063f0293fd3146105fb578063f2fde38b146106385761019c565b8063b88d4fde14610504578063c45580d41461052d578063c87b56dd146105565761019c565b806395652cfa116100c657806395652cfa1461046b57806395d89b4114610494578063a0712d68146104bf578063a22cb465146104db5761019c565b806385d178f4146103ea57806389f0d401146104155780638da5cb5b146104405761019c565b80633ccfd60b116101595780636352211e116101335780636352211e1461032e5780636817c76c1461036b57806370a0823114610396578063715018a6146103d35761019c565b80633ccfd60b146102c357806342842e0e146102da578063453c2310146103035761019c565b806301ffc9a7146101a157806306fdde03146101de578063081812fc14610209578063095ea7b31461024657806318160ddd1461026f57806323b872dd1461029a575b600080fd5b3480156101ad57600080fd5b506101c860048036038101906101c39190611f0c565b610661565b6040516101d59190611f54565b60405180910390f35b3480156101ea57600080fd5b506101f3610743565b6040516102009190611fff565b60405180910390f35b34801561021557600080fd5b50610230600480360381019061022b9190612057565b6107d5565b60405161023d91906120c5565b60405180910390f35b34801561025257600080fd5b5061026d6004803603810190610268919061210c565b61081b565b005b34801561027b57600080fd5b50610284610932565b604051610291919061215b565b60405180910390f35b3480156102a657600080fd5b506102c160048036038101906102bc9190612176565b610938565b005b3480156102cf57600080fd5b506102d8610998565b005b3480156102e657600080fd5b5061030160048036038101906102fc9190612176565b610a71565b005b34801561030f57600080fd5b50610318610a91565b604051610325919061215b565b60405180910390f35b34801561033a57600080fd5b5061035560048036038101906103509190612057565b610a97565b60405161036291906120c5565b60405180910390f35b34801561037757600080fd5b50610380610b48565b60405161038d919061215b565b60405180910390f35b3480156103a257600080fd5b506103bd60048036038101906103b891906121c9565b610b4e565b6040516103ca919061215b565b60405180910390f35b3480156103df57600080fd5b506103e8610c05565b005b3480156103f657600080fd5b506103ff610c19565b60405161040c9190612217565b60405180910390f35b34801561042157600080fd5b5061042a610c3f565b6040516104379190611f54565b60405180910390f35b34801561044c57600080fd5b50610455610c52565b60405161046291906120c5565b60405180910390f35b34801561047757600080fd5b50610492600480360381019061048d9190612297565b610c7c565b005b3480156104a057600080fd5b506104a9610c9a565b6040516104b69190611fff565b60405180910390f35b6104d960048036038101906104d49190612057565b610d2c565b005b3480156104e757600080fd5b5061050260048036038101906104fd9190612310565b610f03565b005b34801561051057600080fd5b5061052b60048036038101906105269190612480565b610f19565b005b34801561053957600080fd5b50610554600480360381019061054f9190612503565b610f7b565b005b34801561056257600080fd5b5061057d60048036038101906105789190612057565b610fa0565b60405161058a9190611fff565b60405180910390f35b34801561059f57600080fd5b506105a861101c565b6040516105b5919061215b565b60405180910390f35b3480156105ca57600080fd5b506105e560048036038101906105e09190612530565b611022565b6040516105f29190611f54565b60405180910390f35b34801561060757600080fd5b50610622600480360381019061061d91906121c9565b6110b6565b60405161062f919061215b565b60405180910390f35b34801561064457600080fd5b5061065f600480360381019061065a91906121c9565b6110ce565b005b60007f80ac58cd000000000000000000000000000000000000000000000000000000007bffffffffffffffffffffffffffffffffffffffffffffffffffffffff1916827bffffffffffffffffffffffffffffffffffffffffffffffffffffffff1916148061072c57507f5b5e139f000000000000000000000000000000000000000000000000000000007bffffffffffffffffffffffffffffffffffffffffffffffffffffffff1916827bffffffffffffffffffffffffffffffffffffffffffffffffffffffff1916145b8061073c575061073b82611151565b5b9050919050565b6060600080546107529061259f565b80601f016020809104026020016040519081016040528092919081815260200182805461077e9061259f565b80156107cb5780601f106107a0576101008083540402835291602001916107cb565b820191906000526020600020905b8154815290600101906020018083116107ae57829003601f168201915b5050505050905090565b60006107e0826111bb565b6004600083815260200190815260200160002060009054906101000a900473ffffffffffffffffffffffffffffffffffffffff169050919050565b600061082682610a97565b90508073ffffffffffffffffffffffffffffffffffffffff168373ffffffffffffffffffffffffffffffffffffffff1603610896576040517f08c379a000000000000000000000000000000000000000000000000000000000815260040161088d90612642565b60405180910390fd5b8073ffffffffffffffffffffffffffffffffffffffff166108b5611206565b73ffffffffffffffffffffffffffffffffffffffff1614806108e457506108e3816108de611206565b611022565b5b610923576040517f08c379a000000000000000000000000000000000000000000000000000000000815260040161091a906126d4565b60405180910390fd5b61092d838361120e565b505050565b60085481565b610949610943611206565b826112c7565b610988576040517f08c379a000000000000000000000000000000000000000000000000000000000815260040161097f90612766565b60405180910390fd5b61099383838361135c565b505050565b6109a06115c2565b6000600d60009054906101000a900473ffffffffffffffffffffffffffffffffffffffff1673ffffffffffffffffffffffffffffffffffffffff16476040516109e8906127b7565b60006040518083038185875af1925050503d8060008114610a25576040519150601f19603f3d011682016040523d82523d6000602084013e610a2a565b606091505b5050905080610a6e576040517f08c379a0000000000000000000000000000000000000000000000000000000008152600401610a6590612818565b60405180910390fd5b50565b610a8c83838360405180602001604052806000815250610f19565b505050565b600a5481565b6000806002600084815260200190815260200160002060009054906101000a900473ffffffffffffffffffffffffffffffffffffffff169050600073ffffffffffffffffffffffffffffffffffffffff168173ffffffffffffffffffffffffffffffffffffffff1603610b3f576040517f08c379a0000000000000000000000000000000000000000000000000000000008152600401610b3690612884565b60405180910390fd5b80915050919050565b60075481565b60008073ffffffffffffffffffffffffffffffffffffffff168273ffffffffffffffffffffffffffffffffffffffff1603610bbe576040517f08c379a0000000000000000000000000000000000000000000000000000000008152600401610bb590612916565b60405180910390fd5b600360008373ffffffffffffffffffffffffffffffffffffffff1673ffffffffffffffffffffffffffffffffffffffff168152602001908152602001600020549050919050565b610c0d6115c2565b610c176000611640565b565b600d60009054906101000a900473ffffffffffffffffffffffffffffffffffffffff1681565b600b60009054906101000a900460ff1681565b6000600660009054906101000a900473ffffffffffffffffffffffffffffffffffffffff16905090565b610c846115c2565b8181600c9182610c95929190612aed565b505050565b606060018054610ca99061259f565b80601f0160208091040260200160405190810160405280929190818152602001828054610cd59061259f565b8015610d225780601f10610cf757610100808354040283529160200191610d22565b820191906000526020600020905b815481529060010190602001808311610d0557829003601f168201915b5050505050905090565b600b60009054906101000a900460ff16610d7b576040517f08c379a0000000000000000000000000000000000000000000000000000000008152600401610d7290612c09565b60405180910390fd5b60075481610d899190612c58565b3414610dca576040517f08c379a0000000000000000000000000000000000000000000000000000000008152600401610dc190612ce6565b60405180910390fd5b60095481600854610ddb9190612d06565b1115610e1c576040517f08c379a0000000000000000000000000000000000000000000000000000000008152600401610e1390612d86565b60405180910390fd5b600a5481600e60003373ffffffffffffffffffffffffffffffffffffffff1673ffffffffffffffffffffffffffffffffffffffff16815260200190815260200160002054610e6a9190612d06565b1115610eab576040517f08c379a0000000000000000000000000000000000000000000000000000000008152600401610ea290612df2565b60405180910390fd5b60005b81811015610eff5760006001600854610ec79190612d06565b905060086000815480929190610edc90612e12565b9190505550610eeb3382611706565b508080610ef790612e12565b915050610eae565b5050565b610f15610f0e611206565b8383611724565b5050565b610f2a610f24611206565b836112c7565b610f69576040517f08c379a0000000000000000000000000000000000000000000000000000000008152600401610f6090612766565b60405180910390fd5b610f7584848484611890565b50505050565b610f836115c2565b80600b60006101000a81548160ff02191690831515021790555050565b6060610fab826118ec565b610fea576040517f08c379a0000000000000000000000000000000000000000000000000000000008152600401610fe190612ea6565b60405180910390fd5b600c610ff583611958565b604051602001611006929190612fd1565b6040516020818303038152906040529050919050565b60095481565b6000600560008473ffffffffffffffffffffffffffffffffffffffff1673ffffffffffffffffffffffffffffffffffffffff16815260200190815260200160002060008373ffffffffffffffffffffffffffffffffffffffff1673ffffffffffffffffffffffffffffffffffffffff16815260200190815260200160002060009054906101000a900460ff16905092915050565b600e6020528060005260406000206000915090505481565b6110d66115c2565b600073ffffffffffffffffffffffffffffffffffffffff168173ffffffffffffffffffffffffffffffffffffffff1603611145576040517f08c379a000000000000000000000000000000000000000000000000000000000815260040161113c90613072565b60405180910390fd5b61114e81611640565b50565b60007f01ffc9a7000000000000000000000000000000000000000000000000000000007bffffffffffffffffffffffffffffffffffffffffffffffffffffffff1916827bffffffffffffffffffffffffffffffffffffffffffffffffffffffff1916149050919050565b6111c4816118ec565b611203576040517f08c379a00000000000000000000000000000000000000000000000000000000081526004016111fa90612884565b60405180910390fd5b50565b600033905090565b816004600083815260200190815260200160002060006101000a81548173ffffffffffffffffffffffffffffffffffffffff021916908373ffffffffffffffffffffffffffffffffffffffff160217905550808273ffffffffffffffffffffffffffffffffffffffff1661128183610a97565b73ffffffffffffffffffffffffffffffffffffffff167f8c5be1e5ebec7d5bd14f71427d1e84f3dd0314c0f7b2291e5b200ac8c7c3b92560405160405180910390a45050565b6000806112d383610a97565b90508073ffffffffffffffffffffffffffffffffffffffff168473ffffffffffffffffffffffffffffffffffffffff16148061131557506113148185611022565b5b8061135357508373ffffffffffffffffffffffffffffffffffffffff1661133b846107d5565b73ffffffffffffffffffffffffffffffffffffffff16145b91505092915050565b8273ffffffffffffffffffffffffffffffffffffffff1661137c82610a97565b73ffffffffffffffffffffffffffffffffffffffff16146113d2576040517f08c379a00000000000000000000000000000000000000000000000000000000081526004016113c990613104565b60405180910390fd5b600073ffffffffffffffffffffffffffffffffffffffff168273ffffffffffffffffffffffffffffffffffffffff1603611441576040517f08c379a000000000000000000000000000000000000000000000000000000000815260040161143890613196565b60405180910390fd5b61144c838383611ab8565b61145760008261120e565b6001600360008573ffffffffffffffffffffffffffffffffffffffff1673ffffffffffffffffffffffffffffffffffffffff16815260200190815260200160002060008282546114a791906131b6565b925050819055506001600360008473ffffffffffffffffffffffffffffffffffffffff1673ffffffffffffffffffffffffffffffffffffffff16815260200190815260200160002060008282546114fe9190612d06565b92505081905550816002600083815260200190815260200160002060006101000a81548173ffffffffffffffffffffffffffffffffffffffff021916908373ffffffffffffffffffffffffffffffffffffffff160217905550808273ffffffffffffffffffffffffffffffffffffffff168473ffffffffffffffffffffffffffffffffffffffff167fddf252ad1be2c89b69c2b068fc378daa952ba7f163c4a11628f55a4df523b3ef60405160405180910390a46115bd838383611abd565b505050565b6115ca611206565b73ffffffffffffffffffffffffffffffffffffffff166115e8610c52565b73ffffffffffffffffffffffffffffffffffffffff161461163e576040517f08c379a000000000000000000000000000000000000000000000000000000000815260040161163590613236565b60405180910390fd5b565b6000600660009054906101000a900473ffffffffffffffffffffffffffffffffffffffff16905081600660006101000a81548173ffffffffffffffffffffffffffffffffffffffff021916908373ffffffffffffffffffffffffffffffffffffffff1602179055508173ffffffffffffffffffffffffffffffffffffffff168173ffffffffffffffffffffffffffffffffffffffff167f8be0079c531659141344cd1fd0a4f28419497f9722a3daafe3b4186f6b6457e060405160405180910390a35050565b611720828260405180602001604052806000815250611ac2565b5050565b8173ffffffffffffffffffffffffffffffffffffffff168373ffffffffffffffffffffffffffffffffffffffff1603611792576040517f08c379a0000000000000000000000000000000000000000000000000000000008152600401611789906132a2565b60405180910390fd5b80600560008573ffffffffffffffffffffffffffffffffffffffff1673ffffffffffffffffffffffffffffffffffffffff16815260200190815260200160002060008473ffffffffffffffffffffffffffffffffffffffff1673ffffffffffffffffffffffffffffffffffffffff16815260200190815260200160002060006101000a81548160ff0219169083151502179055508173ffffffffffffffffffffffffffffffffffffffff168373ffffffffffffffffffffffffffffffffffffffff167f17307eab39ab6107e8899845ad3d59bd9653f200f220920489ca2b5937696c31836040516118839190611f54565b60405180910390a3505050565b61189b84848461135c565b6118a784848484611b1d565b6118e6576040517f08c379a00000000000000000000000000000000000000000000000000000000081526004016118dd90613334565b60405180910390fd5b50505050565b60008073ffffffffffffffffffffffffffffffffffffffff166002600084815260200190815260200160002060009054906101000a900473ffffffffffffffffffffffffffffffffffffffff1673ffffffffffffffffffffffffffffffffffffffff1614159050919050565b60606000820361199f576040518060400160405280600181526020017f30000000000000000000000000000000000000000000000000000000000000008152509050611ab3565b600082905060005b600082146119d15780806119ba90612e12565b915050600a826119ca9190613383565b91506119a7565b60008167ffffffffffffffff8111156119ed576119ec612355565b5b6040519080825280601f01601f191660200182016040528015611a1f5781602001600182028036833780820191505090505b5090505b60008514611aac57600182611a3891906131b6565b9150600a85611a4791906133b4565b6030611a539190612d06565b60f81b818381518110611a6957611a686133e5565b5b60200101907effffffffffffffffffffffffffffffffffffffffffffffffffffffffffffff1916908160001a905350600a85611aa59190613383565b9450611a23565b8093505050505b919050565b505050565b505050565b611acc8383611ca4565b611ad96000848484611b1d565b611b18576040517f08c379a0000000000000000000000000000000000000000000000000000000008152600401611b0f90613334565b60405180910390fd5b505050565b6000611b3e8473ffffffffffffffffffffffffffffffffffffffff16611e7d565b15611c97578373ffffffffffffffffffffffffffffffffffffffff1663150b7a02611b67611206565b8786866040518563ffffffff1660e01b8152600401611b899493929190613469565b6020604051808303816000875af1925050508015611bc557506040513d601f19601f82011682018060405250810190611bc291906134ca565b60015b611c47573d8060008114611bf5576040519150601f19603f3d011682016040523d82523d6000602084013e611bfa565b606091505b506000815103611c3f576040517f08c379a0000000000000000000000000000000000000000000000000000000008152600401611c3690613334565b60405180910390fd5b805181602001fd5b63150b7a0260e01b7bffffffffffffffffffffffffffffffffffffffffffffffffffffffff1916817bffffffffffffffffffffffffffffffffffffffffffffffffffffffff191614915050611c9c565b600190505b949350505050565b600073ffffffffffffffffffffffffffffffffffffffff168273ffffffffffffffffffffffffffffffffffffffff1603611d13576040517f08c379a0000000000000000000000000000000000000000000000000000000008152600401611d0a90613543565b60405180910390fd5b611d1c816118ec565b15611d5c576040517f08c379a0000000000000000000000000000000000000000000000000000000008152600401611d53906135af565b60405180910390fd5b611d6860008383611ab8565b6001600360008473ffffffffffffffffffffffffffffffffffffffff1673ffffffffffffffffffffffffffffffffffffffff1681526020019081526020016000206000828254611db89190612d06565b92505081905550816002600083815260200190815260200160002060006101000a81548173ffffffffffffffffffffffffffffffffffffffff021916908373ffffffffffffffffffffffffffffffffffffffff160217905550808273ffffffffffffffffffffffffffffffffffffffff16600073ffffffffffffffffffffffffffffffffffffffff167fddf252ad1be2c89b69c2b068fc378daa952ba7f163c4a11628f55a4df523b3ef60405160405180910390a4611e7960008383611abd565b5050565b6000808273ffffffffffffffffffffffffffffffffffffffff163b119050919050565b6000604051905090565b600080fd5b600080fd5b60007fffffffff0000000000000000000000000000000000000000000000000000000082169050919050565b611ee981611eb4565b8114611ef457600080fd5b50565b600081359050611f0681611ee0565b92915050565b600060208284031215611f2257611f21611eaa565b5b6000611f3084828501611ef7565b91505092915050565b60008115159050919050565b611f4e81611f39565b82525050565b6000602082019050611f696000830184611f45565b92915050565b600081519050919050565b600082825260208201905092915050565b60005b83811015611fa9578082015181840152602081019050611f8e565b60008484015250505050565b6000601f19601f8301169050919050565b6000611fd182611f6f565b611fdb8185611f7a565b9350611feb818560208601611f8b565b611ff481611fb5565b840191505092915050565b600060208201905081810360008301526120198184611fc6565b905092915050565b6000819050919050565b61203481612021565b811461203f57600080fd5b50565b6000813590506120518161202b565b92915050565b60006020828403121561206d5761206c611eaa565b5b600061207b84828501612042565b91505092915050565b600073ffffffffffffffffffffffffffffffffffffffff82169050919050565b60006120af82612084565b9050919050565b6120bf816120a4565b82525050565b60006020820190506120da60008301846120b6565b92915050565b6120e9816120a4565b81146120f457600080fd5b50565b600081359050612106816120e0565b92915050565b6000806040838503121561212357612122611eaa565b5b6000612131858286016120f7565b925050602061214285828601612042565b9150509250929050565b61215581612021565b82525050565b6000602082019050612170600083018461214c565b92915050565b60008060006060848603121561218f5761218e611eaa565b5b600061219d868287016120f7565b93505060206121ae868287016120f7565b92505060406121bf86828701612042565b9150509250925092565b6000602082840312156121df576121de611eaa565b5b60006121ed848285016120f7565b91505092915050565b600061220182612084565b9050919050565b612211816121f6565b82525050565b600060208201905061222c6000830184612208565b92915050565b600080fd5b600080fd5b600080fd5b60008083601f84011261225757612256612232565b5b8235905067ffffffffffffffff81111561227457612273612237565b5b6020830191508360018202830111156122905761228f61223c565b5b9250929050565b600080602083850312156122ae576122ad611eaa565b5b600083013567ffffffffffffffff8111156122cc576122cb611eaf565b5b6122d885828601612241565b92509250509250929050565b6122ed81611f39565b81146122f857600080fd5b50565b60008135905061230a816122e4565b92915050565b6000806040838503121561232757612326611eaa565b5b6000612335858286016120f7565b9250506020612346858286016122fb565b9150509250929050565b600080fd5b7f4e487b7100000000000000000000000000000000000000000000000000000000600052604160045260246000fd5b61238d82611fb5565b810181811067ffffffffffffffff821117156123ac576123ab612355565b5b80604052505050565b60006123bf611ea0565b90506123cb8282612384565b919050565b600067ffffffffffffffff8211156123eb576123ea612355565b5b6123f482611fb5565b9050602081019050919050565b82818337600083830152505050565b600061242361241e846123d0565b6123b5565b90508281526020810184848401111561243f5761243e612350565b5b61244a848285612401565b509392505050565b600082601f83011261246757612466612232565b5b8135612477848260208601612410565b91505092915050565b6000806000806080858703121561249a57612499611eaa565b5b60006124a8878288016120f7565b94505060206124b9878288016120f7565b93505060406124ca87828801612042565b925050606085013567ffffffffffffffff8111156124eb576124ea611eaf565b5b6124f787828801612452565b91505092959194509250565b60006020828403121561251957612518611eaa565b5b6000612527848285016122fb565b91505092915050565b6000806040838503121561254757612546611eaa565b5b6000612555858286016120f7565b9250506020612566858286016120f7565b9150509250929050565b7f4e487b7100000000000000000000000000000000000000000000000000000000600052602260045260246000fd5b600060028204905060018216806125b757607f821691505b6020821081036125ca576125c9612570565b5b50919050565b7f4552433732313a20617070726f76616c20746f2063757272656e74206f776e6560008201527f7200000000000000000000000000000000000000000000000000000000000000602082015250565b600061262c602183611f7a565b9150612637826125d0565b604082019050919050565b6000602082019050818103600083015261265b8161261f565b9050919050565b7f4552433732313a20617070726f76652063616c6c6572206973206e6f7420746f60008201527f6b656e206f776e6572206e6f7220617070726f76656420666f7220616c6c0000602082015250565b60006126be603e83611f7a565b91506126c982612662565b604082019050919050565b600060208201905081810360008301526126ed816126b1565b9050919050565b7f4552433732313a2063616c6c6572206973206e6f7420746f6b656e206f776e6560008201527f72206e6f7220617070726f766564000000000000000000000000000000000000602082015250565b6000612750602e83611f7a565b915061275b826126f4565b604082019050919050565b6000602082019050818103600083015261277f81612743565b9050919050565b600081905092915050565b50565b60006127a1600083612786565b91506127ac82612791565b600082019050919050565b60006127c282612794565b9150819050919050565b7f77697468726f77206661696c6564000000000000000000000000000000000000600082015250565b6000612802600e83611f7a565b915061280d826127cc565b602082019050919050565b60006020820190508181036000830152612831816127f5565b9050919050565b7f4552433732313a20696e76616c696420746f6b656e2049440000000000000000600082015250565b600061286e601883611f7a565b915061287982612838565b602082019050919050565b6000602082019050818103600083015261289d81612861565b9050919050565b7f4552433732313a2061646472657373207a65726f206973206e6f74206120766160008201527f6c6964206f776e65720000000000000000000000000000000000000000000000602082015250565b6000612900602983611f7a565b915061290b826128a4565b604082019050919050565b6000602082019050818103600083015261292f816128f3565b9050919050565b600082905092915050565b60008190508160005260206000209050919050565b60006020601f8301049050919050565b600082821b905092915050565b6000600883026129a37fffffffffffffffffffffffffffffffffffffffffffffffffffffffffffffffff82612966565b6129ad8683612966565b95508019841693508086168417925050509392505050565b6000819050919050565b60006129ea6129e56129e084612021565b6129c5565b612021565b9050919050565b6000819050919050565b612a04836129cf565b612a18612a10826129f1565b848454612973565b825550505050565b600090565b612a2d612a20565b612a388184846129fb565b505050565b5b81811015612a5c57612a51600082612a25565b600181019050612a3e565b5050565b601f821115612aa157612a7281612941565b612a7b84612956565b81016020851015612a8a578190505b612a9e612a9685612956565b830182612a3d565b50505b505050565b600082821c905092915050565b6000612ac460001984600802612aa6565b1980831691505092915050565b6000612add8383612ab3565b9150826002028217905092915050565b612af78383612936565b67ffffffffffffffff811115612b1057612b0f612355565b5b612b1a825461259f565b612b25828285612a60565b6000601f831160018114612b545760008415612b42578287013590505b612b4c8582612ad1565b865550612bb4565b601f198416612b6286612941565b60005b82811015612b8a57848901358255600182019150602085019450602081019050612b65565b86831015612ba75784890135612ba3601f891682612ab3565b8355505b6001600288020188555050505b50505050505050565b7f6d696e74206e6f74206c69766500000000000000000000000000000000000000600082015250565b6000612bf3600d83611f7a565b9150612bfe82612bbd565b602082019050919050565b60006020820190508181036000830152612c2281612be6565b9050919050565b7f4e487b7100000000000000000000000000000000000000000000000000000000600052601160045260246000fd5b6000612c6382612021565b9150612c6e83612021565b9250828202612c7c81612021565b91508282048414831517612c9357612c92612c29565b5b5092915050565b7f77726f6e67206d696e742076616c756500000000000000000000000000000000600082015250565b6000612cd0601083611f7a565b9150612cdb82612c9a565b602082019050919050565b60006020820190508181036000830152612cff81612cc3565b9050919050565b6000612d1182612021565b9150612d1c83612021565b9250828201905080821115612d3457612d33612c29565b5b92915050565b7f736f6c646f757400000000000000000000000000000000000000000000000000600082015250565b6000612d70600783611f7a565b9150612d7b82612d3a565b602082019050919050565b60006020820190508181036000830152612d9f81612d63565b9050919050565b7f657863656564206d61782077616c6c6574000000000000000000000000000000600082015250565b6000612ddc601183611f7a565b9150612de782612da6565b602082019050919050565b60006020820190508181036000830152612e0b81612dcf565b9050919050565b6000612e1d82612021565b91507fffffffffffffffffffffffffffffffffffffffffffffffffffffffffffffffff8203612e4f57612e4e612c29565b5b600182019050919050565b7f746f6b656e20646f6573206e6f74206578697374730000000000000000000000600082015250565b6000612e90601583611f7a565b9150612e9b82612e5a565b602082019050919050565b60006020820190508181036000830152612ebf81612e83565b9050919050565b600081905092915050565b60008154612ede8161259f565b612ee88186612ec6565b94506001821660008114612f035760018114612f1857612f4b565b60ff1983168652811515820286019350612f4b565b612f2185612941565b60005b83811015612f4357815481890152600182019150602081019050612f24565b838801955050505b50505092915050565b6000612f5f82611f6f565b612f698185612ec6565b9350612f79818560208601611f8b565b80840191505092915050565b7f2e6a736f6e000000000000000000000000000000000000000000000000000000600082015250565b6000612fbb600583612ec6565b9150612fc682612f85565b600582019050919050565b6000612fdd8285612ed1565b9150612fe98284612f54565b9150612ff482612fae565b91508190509392505050565b7f4f776e61626c653a206e6577206f776e657220697320746865207a65726f206160008201527f6464726573730000000000000000000000000000000000000000000000000000602082015250565b600061305c602683611f7a565b915061306782613000565b604082019050919050565b6000602082019050818103600083015261308b8161304f565b9050919050565b7f4552433732313a207472616e736665722066726f6d20696e636f72726563742060008201527f6f776e6572000000000000000000000000000000000000000000000000000000602082015250565b60006130ee602583611f7a565b91506130f982613092565b604082019050919050565b6000602082019050818103600083015261311d816130e1565b9050919050565b7f4552433732313a207472616e7366657220746f20746865207a65726f2061646460008201527f7265737300000000000000000000000000000000000000000000000000000000602082015250565b6000613180602483611f7a565b915061318b82613124565b604082019050919050565b600060208201905081810360008301526131af81613173565b9050919050565b60006131c182612021565b91506131cc83612021565b92508282039050818111156131e4576131e3612c29565b5b92915050565b7f4f776e61626c653a2063616c6c6572206973206e6f7420746865206f776e6572600082015250565b6000613220602083611f7a565b915061322b826131ea565b602082019050919050565b6000602082019050818103600083015261324f81613213565b9050919050565b7f4552433732313a20617070726f766520746f2063616c6c657200000000000000600082015250565b600061328c601983611f7a565b915061329782613256565b602082019050919050565b600060208201905081810360008301526132bb8161327f565b9050919050565b7f4552433732313a207472616e7366657220746f206e6f6e20455243373231526560008201527f63656976657220696d706c656d656e7465720000000000000000000000000000602082015250565b600061331e603283611f7a565b9150613329826132c2565b604082019050919050565b6000602082019050818103600083015261334d81613311565b9050919050565b7f4e487b7100000000000000000000000000000000000000000000000000000000600052601260045260246000fd5b600061338e82612021565b915061339983612021565b9250826133a9576133a8613354565b5b828204905092915050565b60006133bf82612021565b91506133ca83612021565b9250826133da576133d9613354565b5b828206905092915050565b7f4e487b7100000000000000000000000000000000000000000000000000000000600052603260045260246000fd5b600081519050919050565b600082825260208201905092915050565b600061343b82613414565b613445818561341f565b9350613455818560208601611f8b565b61345e81611fb5565b840191505092915050565b600060808201905061347e60008301876120b6565b61348b60208301866120b6565b613498604083018561214c565b81810360608301526134aa8184613430565b905095945050505050565b6000815190506134c481611ee0565b92915050565b6000602082840312156134e0576134df611eaa565b5b60006134ee848285016134b5565b91505092915050565b7f4552433732313a206d696e7420746f20746865207a65726f2061646472657373600082015250565b600061352d602083611f7a565b9150613538826134f7565b602082019050919050565b6000602082019050818103600083015261355c81613520565b9050919050565b7f4552433732313a20746f6b656e20616c7265616479206d696e74656400000000600082015250565b6000613599601c83611f7a565b91506135a482613563565b602082019050919050565b600060208201905081810360008301526135c88161358c565b905091905056fea26469706673582212204f27c7fce26189264bdbe07d8668784c9486002f692e569f0f6c806e29eb91b464736f6c63430008110033",
    "linkReferences": {},
    "deployedLinkReferences": {}
}